:1000CF001200F475A0FE12000E8F0AE50A60F764A5
:1000DF000170F3050BC3E50B94027480948040E626
:0500EF00E4F50B80E1C7
:03000B0002006F81
:0F006F00C0E0C0D075D000C000C004C005C007FD
:10007E00758A66758CFC0509E50970020508D3942E
:10008E00E8E5089403402D750800750900E50BFDA1
:10009E007C00700DAFA07801EF08800123D8FDF52C
:1000AE00A0ED64014C700DAFA07801EF0880010344
:0400BE00D8FDF5A0D4
:0D00C200D007D005D004D000D0D0D0E0325F
:1000F4005389F0438901758A66758CFCC28DD28C54
:07010400D2A9D2AFC2B9225B
:10000E00E4F50C20B1137F0AFE12010B30B1FD7F17
:10001E000A7E0012010B750C0120B0147F0A7E00BF
:10002E0012010B30B0FD7F0A7E0012010B750C021F
:10003E0020B2147F0A7E0012010B30B2FD7F0A7EC1
:10004E000012010B750C0320B3147F0A7E001201FF
:10005E000B30B3FD7F0A7E0012010B750C04AF0C42
:01006E00226F
:10010B00EF1FAC0670011E4C600A7D027CC7DCFE43
:04011B00DDFC80EC9B
:01011F0022BD
:03000000020120DA
:0C012000787FE4F6D8FD75810C0200CF5A
:00000001FF
