:1004740050617373576F7264004F4B200045727262
:05048400002020200013
:10018C0012049E7BFF7A0479747D017F01120415A1
:10019C001200038F1CE51C60F7D3940A74809480C2
:1001AC005041C3E5199404E51894005036AE1AAFCB
:1001BC001B7C007D0A1202878E1A8F1BE51C75F0C2
:1001CC000A84E5F0251BF51BE4351AF51A0519E52B
:1001DC001970020518750C04AB1BAA1A7D017F025D
:1001EC001203F1E51C640B7036E51BB4290DE51AFE
:1001FC00B409087BFF7A04797D80067BFF7A047949
:10020C00817D067F02120415E4F51AF51BF518F52D
:10021C0019750C04AB1BAA1A7D017F021203F1E5C0
:10022C001C640C600302019CF51AF51BF518F519FA
:10023C007BFF7A0479857D067F02120415750C0408
:0E024C00AB1BAA1A7D017F021203F102019C76
:0604B200C2A58F80D2A755
:0804B8007F027EC7DEFEDFFCBF
:0104C0002219
:0A04CD00C2A61204B2C2A70204B8CE
:10043800CFCDCFCECCCE1202997C007D0A12029984
:04044800ED2430FF70
:0A044C00D2A61204B2C2A70204B83F
:10045600AE07EEFB7A0064017004ED148009EB64CC
:0E046600024A7009ED243F4480FF1204CD22AB
:10049E007F381204CD7F0C1204CD7F061204CD7F5F
:0404AE00010204CD76
:0A04D700AC03120456AF0402044CFB
:060415008B088A09890A28
:10041B00120456E4FDAB08AA09A90A8D8275830064
:0C042B0012025AFF600612044C0D80E91A
:0104370022A2
:0A03C000EF24FFFDEE34FFFC7F0A7E
:0803CA008E0D8F0E8C0F8D10BB
:1003D2007F017E00E4FBEBC39510E50F6480F874A7
:0E03E2008098500AAC0DAD0E1202870B80E819
:0103F00022EA
:0403F1008A0A8B0BDE
:1003F500120456AA0CEAFF7E00D394007480948000
:0F040500400D1203C0AC0AAD0B1204381A80E68A
:0104140022C5
:040339008B828A83A6
:10033D00120456C3E58364809480400D7F2B120414
:10034D004C85831685821780107F2D12044CC3E4D3
:10035D009582F517E49583F516AA15EAFF7E00D36D
:10036D00940074809480400D1203C0AC16AD17122A
:05037D0004381A80E6BF
:010382002258
:0402EE008A1F8B20B8
:1002F200120456AA21EAD39400748094804037EA0B
:1003020024FFFDE434FFFC7F107E001203CAAC1F01
:10031200AD20CFCDCFCECCCE120299EF540FFEC37B
:10032200940A74809480EE5004243080022437FFB3
:0603320012044C1A80BF0A
:0103380022A2
:040383008A248B2518
:10038700120456AA26EAFF7E00D394007480948054
:100397004026EF24FFFDEE34FFFC7F021203CAACB8
:1003A70024AD25CFCDCFCECCCE120299EF54012468
:0803B70030FF12044C1A80CD46
:0103BF00221B
:10048900EF1FAC0670011E4C600A7D027CC7DCFEC2
:04049900DDFC80EC1A
:01049D00223C
:10000300E4F5087590FFC2932097137F0AFE12044C
:10001300893097FD7F0A7E001204897508012096B6
:10002300147F0A7E001204893096FD7F0A7E001237
:1000330004897508052095147F0A7E00120489300F
:1000430095FD7F0A7E001204897508092094147FA8
:100053000A7E001204893094FD7F0A7E001204890F
:1000630075080D7590FFC2922097147F0A7E0012C7
:1000730004893097FD7F0A7E0012048975080220E7
:1000830096147F0A7E001204893096FD7F0A7E0053
:100093001204897508062095147F0A7E00120489CC
:1000A3003095FD7F0A7E0012048975080A20941496
:1000B3007F0A7E001204893094FD7F0A7E001204B9
:1000C3008975080E7590FFC2912097147F0A7E00F0
:1000D3001204893097FD7F0A7E0012048975080394
:1000E3002096147F0A7E001204893096FD7F0A7ED3
:1000F300001204897508072095147F0A7E001204F4
:10010300893095FD7F0A7E0012048975080B2094BF
:10011300147F0A7E001204893094FD7F0A7E001248
:10012300048975080F7590FFC2902097147F0A7E8B
:10013300001204893097FD7F0A7E00120489750836
:10014300042096147F0A7E001204893096FD7F0AEC
:100153007E001204897508082095147F0A7E001218
:1001630004893095FD7F0A7E0012048975080C20EE
:1001730094147F0A7E001204893094FD7F0A7E0066
:08018300120489750810AF0891
:01018B002251
:030000000204C136
:0C04C100787FE4F6D8FD75812602018CDE
:10025A00BB010CE58229F582E5833AF583E0225059
:10026A0006E92582F8E622BBFE06E92582F8E222A3
:0D027A00E58229F582E5833AF583E49322BD
:10028700EF8DF0A4A8F0CF8CF0A428CE8DF0A42E8B
:02029700FE2245
:10029900BC000BBE0029EF8DF084FFADF022E4CC49
:1002A900F875F008EF2FFFEE33FEEC33FCEE9DEC12
:1002B900984005FCEE9DFE0FD5F0E9E4CEFD22ED58
:1002C900F8F5F0EE8420D21CFEADF075F008EF2FA2
:1002D900FFED33FD4007985006D5F0F222C398FD93
:0502E9000FD5F0EA2230
:00000001FF
