:09034600436C6F636B3A003A004E
:1000A2001203031202D77BFF7A0379467D017F0197
:1000B2001202787BFF7A03794D7D037F0212027868
:1000C2007BFF7A03794D7D067F02120278E51BFBE6
:1000D2007A00750C027D017F02120254E51CFB7A44
:1000E20000750C027D047F02120254E51AFB7A00AD
:0C00F200750C027D077F0212025480D1C1
:03000B000200FEF2
:0400FE00C0E0C0D0CE
:10010200758A66758CFC0519E51970020518D39479
:10011200E8E51894034033751800751900051AE5CF
:100122001A943C748094804021751A00051CE51CC9
:10013200943C748094804012751C00051BE51B944E
:0A01420018748094804003751B00C0
:05014C00D0D0D0E0322C
:1002EE00EF1FAC0670011E4C600A7D027CC7DCFE5F
:0402FE00DDFC80ECB7
:0103020022D8
:06031700C2A58F80D2A7F1
:08031D007F027EC7DEFEDFFC5B
:0103250022B5
:0A033200C2A6120317C2A702031DA2
:10029B00CFCDCFCECCCE12004D7C007D0A12004DBF
:0402AB00ED2430FF0F
:0A02AF00D2A6120317C2A702031D16
:1002B900AE07EEFB7A0064017004ED148009EB646B
:0E02C900024A7009ED243F4480FF12033222E6
:100303007F381203327F0C1203327F061203327FCF
:0403130001020332AE
:0A033C00AC031202B9AF040202AFD5
:060278008B088A09890AC7
:10027E001202B9E4FDAB08AA09A90A8D82758300A2
:0C028E0012000EFF60061202AF0D80E9A6
:01029A002241
:0A022300EF24FFFDEE34FFFC7F0A1C
:08022D008E0D8F0E8C0F8D1059
:100235007F017E00E4FBEBC39510E50F6480F87445
:0E0245008098500AAC0DAD0E12003B0B80E805
:010253002288
:040254008A0A8B0B7C
:100258001202B9AA0CEAFF7E00D39400748094803D
:0F026800400D120223AC0AAD0B12029B1A80E666
:010277002264
:04019C008B828A8345
:1001A0001202B9C3E58364809480400D7F2B120254
:1001B000AF85831685821780107F2D1202AFC3E4AE
:1001C0009582F517E49583F516AA15EAFF7E00D30C
:1001D000940074809480400D120223AC16AD171267
:0501E000029B1A80E6FD
:0101E50022F7
:040151008A1F8B2056
:100155001202B9AA21EAD39400748094804037EA48
:1001650024FFFDE434FFFC7F107E0012022DAC1F3E
:10017500AD20CFCDCFCECCCE12004DEF540FFEC368
:10018500940A74809480EE5004243080022437FF52
:060195001202AF1A80BF48
:01019B002241
:0401E6008A248B25B7
:1001EA001202B9AA26EAFF7E00D394007480948092
:1001FA004026EF24FFFDEE34FFFC7F0212022DACF5
:10020A0024AD25CFCDCFCECCCE12004DEF54012454
:08021A0030FF1202AF1A80CD83
:0102220022B9
:1002D7005389F0438901758A66758CFCC28DD28C6F
:0702E700D2A9D2AFC2B92277
:03000000020326D2
:0C032600787FE4F6D8FD7581260200A265
:10000E00BB010CE58229F582E5833AF583E02250A7
:10001E0006E92582F8E622BBFE06E92582F8E222F1
:0D002E00E58229F582E5833AF583E493220B
:10003B00EF8DF0A4A8F0CF8CF0A428CE8DF0A42ED9
:02004B00FE2293
:10004D00BC000BBE0029EF8DF084FFADF022E4CC97
:10005D00F875F008EF2FFFEE33FEEC33FCEE9DEC60
:10006D00984005FCEE9DFE0FD5F0E9E4CEFD22EDA6
:10007D00F8F5F0EE8420D21CFEADF075F008EF2FF0
:10008D00FFED33FD4007985006D5F0F222C398FDE1
:05009D000FD5F0EA227E
:00000001FF
